:100000000C9434000C9451000C9451000C94510049
:100010000C9451000C9451000C9451000C9451001C
:100020000C9451000C9451000C9451000C9451000C
:100030000C9451000C9451000C9451000C945100FC
:100040000C94D6000C9451000C943F010C941501B3
:100050000C9451000C9451000C9451000C945100DC
:100060000C9451000C94510011241FBECFEFD8E026
:10007000DEBFCDBF11E0A0E0B1E0ECE0F5E002C0F2
:1000800005900D92AC36B107D9F722E0ACE6B1E0AD
:1000900001C01D92AD30B207E1F70E948F010C94B0
:1000A00084020C940000DC019B01AB01405F5F4FB8
:1000B000F9019D91992359F02F5F3F4F808198134B
:1000C00006C024173507A1F780E090E00895892F36
:1000D00090E02081821B91090895EFE8F1E01192F0
:1000E00081E0EF3AF807D9F710928C0110920202E2
:1000F0000895DC0190918C0120E030E040E026176B
:1001000037077CF5FD01E20FF31F8081803259F43F
:1001100081E0890F933018F080938C0108952F5F50
:100120003F4F982F40E0FD01E20FF31F808150E127
:10013000959FF0011124E157FE4FE40FF11D8083DC
:10014000413118F44F5F592F08C051E0590F9330D7
:1001500018F050938C01089540E02F5F3F4F952F8A
:10016000CECF90938C01089590918E019F5F9F71E7
:1001700020918D019217E1F3E92FF0E0E459FE4F51
:10018000808390938E018091C10080628093C10032
:100190000895CF93DF93EC018991882319F00E9491
:1001A000B400FACFDF91CF91089508951F920F9276
:1001B0000FB60F9211242F933F934F935F936F933A
:1001C0007F938F939F93AF93209105023091060206
:1001D00040910702509108026091090270910A0251
:1001E00080910B0290910C02A1E00E947802209372
:1001F0000502309306024093070250930802609371
:10020000090270930A0280930B0290930C02AF9143
:100210009F918F917F916F915F914F913F912F911E
:100220000F900FBE0F901F9018951F920F920FB650
:100230000F9211248F939F93EF93FF9390918E01D0
:1002400080918D01981769F0E0918D01EF5FEF715A
:10025000E0938D01F0E0E459FE4F80818093C60069
:1002600005C08091C1008F7D8093C100FF91EF9107
:100270009F918F910F900FBE0F901F9018951F9216
:100280000F920FB60F9211242F933F934F935F93CA
:100290006F937F938F939F93AF93BF93CF93EF937E
:1002A000FF938091F2019091F301809734F5C09112
:1002B000C600CD3051F48DE00E94B4008AE00E9467
:1002C000B40081E08093F40103C08C2F0E94B4003D
:1002D0008091F40181110EC08091F2019091F3019F
:1002E000FC01EE52FE4FC08301969093F301809380
:1002F000F20103C081E08093F401FF91EF91CF916F
:10030000BF91AF919F918F917F916F915F914F912D
:100310003F912F910F900FBE0F901F901895109244
:100320008E0110928D011092C50087E68093C40063
:1003300088E98093C10086E08093C200789414BC61
:1003400015BC85B5826085BD80916E00816080930B
:100350006E0016BC1092050210920602109207025F
:10036000109208021092090210920A0210920B02D7
:1003700010920C0285ED90E09093F6018093F501C8
:1003800011E080910202813009F470C08091F40183
:10039000882389F06091F2017091F30182ED91E080
:1003A0000E9479001092F3011092F2011092F40170
:1003B000109302021EC08091D1018823D1F0609178
:1003C000CF017091D0018FEA91E00E9479001092E4
:1003D000D1011092D0011092CF0180E491E00E94EF
:1003E000C9008FE891E00E94C90089E691E00E946F
:1003F000C90064E571E08FE891E00E945300892B09
:10040000E9F48FE991E00E94C90089E691E00E9439
:10041000C90080E0E82E81E0F82EC0E0B7018FE946
:1004200091E00E945300892B11F4C0930102CF5F29
:1004300020E1E20EF11CC43089F716C069E571E0D5
:100440008FE891E00E945300892B71F480910102A2
:1004500020E18202C001112480509F4F0E94C900F8
:1004600089E691E00E94C9000E946D00E0910102BE
:10047000EE0FFF0BEB50FE4F0190F081E02D309717
:1004800019F081E092E009958091050290910602B1
:10049000A0910702B0910802C0910902D0910A020E
:1004A000E0910B02F0910C022091030230910402C2
:1004B000821B930B85389E4108F463CF309105026F
:1004C0002091060280910702809108028091090222
:1004D00080910A0280910B0280910C02C9019093D5
:1004E0000302809304028EE591E00E94C90049CF87
:1004F0000024A7FD00942A0F301D401D501D601DD3
:0C050000701D801D901D0895F894FFCF21
:10050C0049646C6500000000000000000000000061
:10051C00536C6176650000000000000000000000D4
:10052C0052656D6F7465436F6E74726F6C00000072
:10053C004175746F6E6F6D6F757300000000000075
:10054C00626C7565746F6F746820636F6D6D616E2E
:10055C00643A2000736574530067657453006865D2
:0C056C006C6C6F20776F726C640D0A00DD
:00000001FF
